{
  "_format": "hh3-artifact-1",
  "contractName": "WarChest",
  "sourceName": "contracts/WarChest.sol",
  "abi": [
    {
      "inputs": [
        {
          "internalType": "address",
          "name": "initialOwner",
          "type": "address"
        }
      ],
      "stateMutability": "nonpayable",
      "type": "constructor"
    },
    {
      "inputs": [],
      "name": "InsufficientDonation",
      "type": "error"
    },
    {
      "inputs": [],
      "name": "NothingToWithdraw",
      "type": "error"
    },
    {
      "inputs": [
        {
          "internalType": "address",
          "name": "owner",
          "type": "address"
        }
      ],
      "name": "OwnableInvalidOwner",
      "type": "error"
    },
    {
      "inputs": [
        {
          "internalType": "address",
          "name": "account",
          "type": "address"
        }
      ],
      "name": "OwnableUnauthorizedAccount",
      "type": "error"
    },
    {
      "inputs": [],
      "name": "WithdrawFailed",
      "type": "error"
    },
    {
      "anonymous": false,
      "inputs": [
        {
          "indexed": true,
          "internalType": "address",
          "name": "donor",
          "type": "address"
        },
        {
          "indexed": true,
          "internalType": "uint256",
          "name": "epoch",
          "type": "uint256"
        },
        {
          "indexed": false,
          "internalType": "uint256",
          "name": "amount",
          "type": "uint256"
        }
      ],
      "name": "Donated",
      "type": "event"
    },
    {
      "anonymous": false,
      "inputs": [
        {
          "indexed": true,
          "internalType": "address",
          "name": "previousOwner",
          "type": "address"
        },
        {
          "indexed": true,
          "internalType": "address",
          "name": "newOwner",
          "type": "address"
        }
      ],
      "name": "OwnershipTransferStarted",
      "type": "event"
    },
    {
      "anonymous": false,
      "inputs": [
        {
          "indexed": true,
          "internalType": "address",
          "name": "previousOwner",
          "type": "address"
        },
        {
          "indexed": true,
          "internalType": "address",
          "name": "newOwner",
          "type": "address"
        }
      ],
      "name": "OwnershipTransferred",
      "type": "event"
    },
    {
      "anonymous": false,
      "inputs": [
        {
          "indexed": true,
          "internalType": "address",
          "name": "to",
          "type": "address"
        },
        {
          "indexed": false,
          "internalType": "uint256",
          "name": "amount",
          "type": "uint256"
        }
      ],
      "name": "Withdrawn",
      "type": "event"
    },
    {
      "inputs": [],
      "name": "EPOCH_DURATION",
      "outputs": [
        {
          "internalType": "uint256",
          "name": "",
          "type": "uint256"
        }
      ],
      "stateMutability": "view",
      "type": "function"
    },
    {
      "inputs": [],
      "name": "MIN_DONATION",
      "outputs": [
        {
          "internalType": "uint256",
          "name": "",
          "type": "uint256"
        }
      ],
      "stateMutability": "view",
      "type": "function"
    },
    {
      "inputs": [],
      "name": "acceptOwnership",
      "outputs": [],
      "stateMutability": "nonpayable",
      "type": "function"
    },
    {
      "inputs": [],
      "name": "currentEpoch",
      "outputs": [
        {
          "internalType": "uint256",
          "name": "",
          "type": "uint256"
        }
      ],
      "stateMutability": "view",
      "type": "function"
    },
    {
      "inputs": [],
      "name": "donate",
      "outputs": [],
      "stateMutability": "payable",
      "type": "function"
    },
    {
      "inputs": [
        {
          "internalType": "uint256",
          "name": "",
          "type": "uint256"
        },
        {
          "internalType": "address",
          "name": "",
          "type": "address"
        }
      ],
      "name": "donations",
      "outputs": [
        {
          "internalType": "uint256",
          "name": "",
          "type": "uint256"
        }
      ],
      "stateMutability": "view",
      "type": "function"
    },
    {
      "inputs": [
        {
          "internalType": "uint256",
          "name": "",
          "type": "uint256"
        }
      ],
      "name": "epochDonationCount",
      "outputs": [
        {
          "internalType": "uint256",
          "name": "",
          "type": "uint256"
        }
      ],
      "stateMutability": "view",
      "type": "function"
    },
    {
      "inputs": [
        {
          "internalType": "uint256",
          "name": "",
          "type": "uint256"
        }
      ],
      "name": "epochDonorCount",
      "outputs": [
        {
          "internalType": "uint256",
          "name": "",
          "type": "uint256"
        }
      ],
      "stateMutability": "view",
      "type": "function"
    },
    {
      "inputs": [
        {
          "internalType": "uint256",
          "name": "",
          "type": "uint256"
        }
      ],
      "name": "epochTotals",
      "outputs": [
        {
          "internalType": "uint256",
          "name": "",
          "type": "uint256"
        }
      ],
      "stateMutability": "view",
      "type": "function"
    },
    {
      "inputs": [],
      "name": "owner",
      "outputs": [
        {
          "internalType": "address",
          "name": "",
          "type": "address"
        }
      ],
      "stateMutability": "view",
      "type": "function"
    },
    {
      "inputs": [],
      "name": "pendingOwner",
      "outputs": [
        {
          "internalType": "address",
          "name": "",
          "type": "address"
        }
      ],
      "stateMutability": "view",
      "type": "function"
    },
    {
      "inputs": [],
      "name": "renounceOwnership",
      "outputs": [],
      "stateMutability": "nonpayable",
      "type": "function"
    },
    {
      "inputs": [],
      "name": "startTimestamp",
      "outputs": [
        {
          "internalType": "uint256",
          "name": "",
          "type": "uint256"
        }
      ],
      "stateMutability": "view",
      "type": "function"
    },
    {
      "inputs": [],
      "name": "totalDonated",
      "outputs": [
        {
          "internalType": "uint256",
          "name": "",
          "type": "uint256"
        }
      ],
      "stateMutability": "view",
      "type": "function"
    },
    {
      "inputs": [],
      "name": "totalDonations",
      "outputs": [
        {
          "internalType": "uint256",
          "name": "",
          "type": "uint256"
        }
      ],
      "stateMutability": "view",
      "type": "function"
    },
    {
      "inputs": [],
      "name": "totalDonors",
      "outputs": [
        {
          "internalType": "uint256",
          "name": "",
          "type": "uint256"
        }
      ],
      "stateMutability": "view",
      "type": "function"
    },
    {
      "inputs": [
        {
          "internalType": "address",
          "name": "newOwner",
          "type": "address"
        }
      ],
      "name": "transferOwnership",
      "outputs": [],
      "stateMutability": "nonpayable",
      "type": "function"
    },
    {
      "inputs": [],
      "name": "withdraw",
      "outputs": [],
      "stateMutability": "nonpayable",
      "type": "function"
    },
    {
      "stateMutability": "payable",
      "type": "receive"
    }
  ],
  "bytecode": "0x60a060405234801561000f575f5ffd5b50604051610a17380380610a1783398101604081905261002e916100db565b806001600160a01b03811661005c57604051631e4fbdf760e01b81525f600482015260240160405180910390fd5b61006581610070565b505042608052610108565b600180546001600160a01b03191690556100898161008c565b50565b5f80546001600160a01b038381166001600160a01b0319831681178455604051919092169283917f8be0079c531659141344cd1fd0a4f28419497f9722a3daafe3b4186f6b6457e09190a35050565b5f602082840312156100eb575f5ffd5b81516001600160a01b0381168114610101575f5ffd5b9392505050565b6080516108f06101275f395f81816102ce015261065901526108f05ff3fe608060405260043610610107575f3560e01c80638da5cb5b11610092578063e30c397811610062578063e30c3978146102a0578063e6fd48bc146102bd578063ed88c68e146102f0578063ee1554a3146102f8578063f2fde38b1461032e575f5ffd5b80638da5cb5b1461022a578063a70b9f0c1461025a578063db45810e14610270578063de2ed8931461028b575f5ffd5b80633ccfd60b116100d85780633ccfd60b146101af5780635d1601a7146101c3578063715018a6146101ee578063766718081461020257806379ba509714610216575f5ffd5b8062b370441461011c57806325c302e41461014457806334fc6fce146101595780633786dfd214610184575f5ffd5b3661011857610116333461034d565b005b5f5ffd5b348015610127575f5ffd5b5061013160075481565b6040519081526020015b60405180910390f35b34801561014f575f5ffd5b5061013160085481565b348015610164575f5ffd5b506101316101733660046107df565b60036020525f908152604090205481565b34801561018f575f5ffd5b5061013161019e3660046107df565b60046020525f908152604090205481565b3480156101ba575f5ffd5b5061011661054d565b3480156101ce575f5ffd5b506101316101dd3660046107df565b60056020525f908152604090205481565b3480156101f9575f5ffd5b5061011661063c565b34801561020d575f5ffd5b5061013161064f565b348015610221575f5ffd5b5061011661068d565b348015610235575f5ffd5b505f546001600160a01b03165b6040516001600160a01b03909116815260200161013b565b348015610265575f5ffd5b506101316276a70081565b34801561027b575f5ffd5b5061013167016345785d8a000081565b348015610296575f5ffd5b5061013160095481565b3480156102ab575f5ffd5b506001546001600160a01b0316610242565b3480156102c8575f5ffd5b506101317f000000000000000000000000000000000000000000000000000000000000000081565b6101166106d6565b348015610303575f5ffd5b50610131610312366004610811565b600260209081525f928352604080842090915290825290205481565b348015610339575f5ffd5b5061011661034836600461083b565b6106e0565b67016345785d8a000081101561037657604051631307bc7760e31b815260040160405180910390fd5b5f61037f61064f565b5f8181526002602090815260408083206001600160a01b03881684529091528120805492935084929091906103b590849061086f565b90915550505f81815260036020526040812080548492906103d790849061086f565b90915550505f8181526005602052604081208054600192906103fa90849061086f565b90915550505f8181526006602090815260408083206001600160a01b038716845290915290205460ff16610478575f8181526006602090815260408083206001600160a01b03871684528252808320805460ff191660019081179091558484526004909252822080549192909161047290849061086f565b90915550505b8160075f828254610489919061086f565b92505081905550600160095f8282546104a2919061086f565b90915550506001600160a01b0383165f908152600a602052604090205460ff16610504576001600160a01b0383165f908152600a60205260408120805460ff1916600190811790915560088054919290916104fe90849061086f565b90915550505b80836001600160a01b03167f4928895ba6723e8e27b15f32e4c3054a1b6c7f8c03f133558d6fa42b3928d14c8460405161054091815260200190565b60405180910390a3505050565b610555610750565b5f80546001600160a01b031690479081900361058457604051630686827b60e51b815260040160405180910390fd5b5f826001600160a01b0316826040515f6040518083038185875af1925050503d805f81146105cd576040519150601f19603f3d011682016040523d82523d5f602084013e6105d2565b606091505b50509050806105f457604051631d42c86760e21b815260040160405180910390fd5b826001600160a01b03167f7084f5476618d8e60b11ef0d7d3f06914655adb8793e28ff7f018d4c76d505d58360405161062f91815260200190565b60405180910390a2505050565b610644610750565b61064d5f61077c565b565b5f6276a70061067e7f000000000000000000000000000000000000000000000000000000000000000042610888565b610688919061089b565b905090565b60015433906001600160a01b031681146106ca5760405163118cdaa760e01b81526001600160a01b03821660048201526024015b60405180910390fd5b6106d38161077c565b50565b61064d333461034d565b6106e8610750565b600180546001600160a01b0383166001600160a01b031990911681179091556107185f546001600160a01b031690565b6001600160a01b03167f38d16b8cac22d99fc7c124b9cd0de2d3fa1faef420bfe791d8c362d765e2270060405160405180910390a350565b5f546001600160a01b0316331461064d5760405163118cdaa760e01b81523360048201526024016106c1565b600180546001600160a01b03191690556106d3815f80546001600160a01b038381166001600160a01b0319831681178455604051919092169283917f8be0079c531659141344cd1fd0a4f28419497f9722a3daafe3b4186f6b6457e09190a35050565b5f602082840312156107ef575f5ffd5b5035919050565b80356001600160a01b038116811461080c575f5ffd5b919050565b5f5f60408385031215610822575f5ffd5b82359150610832602084016107f6565b90509250929050565b5f6020828403121561084b575f5ffd5b610854826107f6565b9392505050565b634e487b7160e01b5f52601160045260245ffd5b808201808211156108825761088261085b565b92915050565b818103818111156108825761088261085b565b5f826108b557634e487b7160e01b5f52601260045260245ffd5b50049056fea2646970667358221220c3cdacc2f83c722c3b6714f81b2307e567b450db49b8dc435bcd0dc282da598c64736f6c634300081c0033",
  "linkReferences": {},
  "deployedLinkReferences": {},
  "immutableReferences": {
    "278": [
      {
        "length": 32,
        "start": 718
      },
      {
        "length": 32,
        "start": 1625
      }
    ]
  },
  "inputSourceName": "project/contracts/WarChest.sol",
  "buildInfoId": "solc-0_8_28-de2212911a1d07699224523745a82fd656890317"
}