{
  "_format": "hh3-artifact-1",
  "contractName": "LilBurn",
  "sourceName": "contracts/LilBurn.sol",
  "abi": [
    {
      "inputs": [
        {
          "internalType": "address",
          "name": "initialOwner",
          "type": "address"
        }
      ],
      "stateMutability": "nonpayable",
      "type": "constructor"
    },
    {
      "inputs": [
        {
          "internalType": "address",
          "name": "sender",
          "type": "address"
        },
        {
          "internalType": "uint256",
          "name": "tokenId",
          "type": "uint256"
        },
        {
          "internalType": "address",
          "name": "owner",
          "type": "address"
        }
      ],
      "name": "ERC721IncorrectOwner",
      "type": "error"
    },
    {
      "inputs": [
        {
          "internalType": "address",
          "name": "operator",
          "type": "address"
        },
        {
          "internalType": "uint256",
          "name": "tokenId",
          "type": "uint256"
        }
      ],
      "name": "ERC721InsufficientApproval",
      "type": "error"
    },
    {
      "inputs": [
        {
          "internalType": "address",
          "name": "approver",
          "type": "address"
        }
      ],
      "name": "ERC721InvalidApprover",
      "type": "error"
    },
    {
      "inputs": [
        {
          "internalType": "address",
          "name": "operator",
          "type": "address"
        }
      ],
      "name": "ERC721InvalidOperator",
      "type": "error"
    },
    {
      "inputs": [
        {
          "internalType": "address",
          "name": "owner",
          "type": "address"
        }
      ],
      "name": "ERC721InvalidOwner",
      "type": "error"
    },
    {
      "inputs": [
        {
          "internalType": "address",
          "name": "receiver",
          "type": "address"
        }
      ],
      "name": "ERC721InvalidReceiver",
      "type": "error"
    },
    {
      "inputs": [
        {
          "internalType": "address",
          "name": "sender",
          "type": "address"
        }
      ],
      "name": "ERC721InvalidSender",
      "type": "error"
    },
    {
      "inputs": [
        {
          "internalType": "uint256",
          "name": "tokenId",
          "type": "uint256"
        }
      ],
      "name": "ERC721NonexistentToken",
      "type": "error"
    },
    {
      "inputs": [],
      "name": "ExceedsMaxMint",
      "type": "error"
    },
    {
      "inputs": [],
      "name": "ExceedsMaxSupply",
      "type": "error"
    },
    {
      "inputs": [],
      "name": "ExceedsOwnerMint",
      "type": "error"
    },
    {
      "inputs": [],
      "name": "IncorrectPayment",
      "type": "error"
    },
    {
      "inputs": [],
      "name": "InvalidMerkleProof",
      "type": "error"
    },
    {
      "inputs": [],
      "name": "InvalidPhaseSchedule",
      "type": "error"
    },
    {
      "inputs": [],
      "name": "MerkleRootNotSet",
      "type": "error"
    },
    {
      "inputs": [],
      "name": "MintPhaseNotActive",
      "type": "error"
    },
    {
      "inputs": [],
      "name": "NotOwnerOrApproved",
      "type": "error"
    },
    {
      "inputs": [
        {
          "internalType": "address",
          "name": "owner",
          "type": "address"
        }
      ],
      "name": "OwnableInvalidOwner",
      "type": "error"
    },
    {
      "inputs": [
        {
          "internalType": "address",
          "name": "account",
          "type": "address"
        }
      ],
      "name": "OwnableUnauthorizedAccount",
      "type": "error"
    },
    {
      "inputs": [],
      "name": "OwnerMintNotComplete",
      "type": "error"
    },
    {
      "inputs": [],
      "name": "WithdrawFailed",
      "type": "error"
    },
    {
      "inputs": [],
      "name": "ZeroQuantity",
      "type": "error"
    },
    {
      "anonymous": false,
      "inputs": [
        {
          "indexed": true,
          "internalType": "address",
          "name": "owner",
          "type": "address"
        },
        {
          "indexed": true,
          "internalType": "address",
          "name": "approved",
          "type": "address"
        },
        {
          "indexed": true,
          "internalType": "uint256",
          "name": "tokenId",
          "type": "uint256"
        }
      ],
      "name": "Approval",
      "type": "event"
    },
    {
      "anonymous": false,
      "inputs": [
        {
          "indexed": true,
          "internalType": "address",
          "name": "owner",
          "type": "address"
        },
        {
          "indexed": true,
          "internalType": "address",
          "name": "operator",
          "type": "address"
        },
        {
          "indexed": false,
          "internalType": "bool",
          "name": "approved",
          "type": "bool"
        }
      ],
      "name": "ApprovalForAll",
      "type": "event"
    },
    {
      "anonymous": false,
      "inputs": [
        {
          "indexed": false,
          "internalType": "string",
          "name": "baseURI",
          "type": "string"
        }
      ],
      "name": "BaseURISet",
      "type": "event"
    },
    {
      "anonymous": false,
      "inputs": [
        {
          "indexed": false,
          "internalType": "uint256",
          "name": "_fromTokenId",
          "type": "uint256"
        },
        {
          "indexed": false,
          "internalType": "uint256",
          "name": "_toTokenId",
          "type": "uint256"
        }
      ],
      "name": "BatchMetadataUpdate",
      "type": "event"
    },
    {
      "anonymous": false,
      "inputs": [
        {
          "indexed": true,
          "internalType": "uint256",
          "name": "milestone",
          "type": "uint256"
        }
      ],
      "name": "BurnMilestone",
      "type": "event"
    },
    {
      "anonymous": false,
      "inputs": [
        {
          "indexed": false,
          "internalType": "bytes32",
          "name": "root",
          "type": "bytes32"
        }
      ],
      "name": "HolderMerkleRootSet",
      "type": "event"
    },
    {
      "anonymous": false,
      "inputs": [
        {
          "indexed": false,
          "internalType": "uint256",
          "name": "_tokenId",
          "type": "uint256"
        }
      ],
      "name": "MetadataUpdate",
      "type": "event"
    },
    {
      "anonymous": false,
      "inputs": [
        {
          "indexed": false,
          "internalType": "bool",
          "name": "paused",
          "type": "bool"
        }
      ],
      "name": "MintPaused",
      "type": "event"
    },
    {
      "anonymous": false,
      "inputs": [
        {
          "indexed": true,
          "internalType": "address",
          "name": "to",
          "type": "address"
        },
        {
          "indexed": true,
          "internalType": "uint256",
          "name": "startTokenId",
          "type": "uint256"
        },
        {
          "indexed": false,
          "internalType": "uint256",
          "name": "quantity",
          "type": "uint256"
        }
      ],
      "name": "Minted",
      "type": "event"
    },
    {
      "anonymous": false,
      "inputs": [
        {
          "indexed": true,
          "internalType": "address",
          "name": "previousOwner",
          "type": "address"
        },
        {
          "indexed": true,
          "internalType": "address",
          "name": "newOwner",
          "type": "address"
        }
      ],
      "name": "OwnershipTransferStarted",
      "type": "event"
    },
    {
      "anonymous": false,
      "inputs": [
        {
          "indexed": true,
          "internalType": "address",
          "name": "previousOwner",
          "type": "address"
        },
        {
          "indexed": true,
          "internalType": "address",
          "name": "newOwner",
          "type": "address"
        }
      ],
      "name": "OwnershipTransferred",
      "type": "event"
    },
    {
      "anonymous": false,
      "inputs": [
        {
          "indexed": false,
          "internalType": "uint64",
          "name": "holderStart",
          "type": "uint64"
        },
        {
          "indexed": false,
          "internalType": "uint64",
          "name": "whitelistStart",
          "type": "uint64"
        },
        {
          "indexed": false,
          "internalType": "uint64",
          "name": "publicStart",
          "type": "uint64"
        }
      ],
      "name": "PhaseScheduleSet",
      "type": "event"
    },
    {
      "anonymous": false,
      "inputs": [
        {
          "indexed": true,
          "internalType": "uint256",
          "name": "tokenId",
          "type": "uint256"
        },
        {
          "indexed": false,
          "internalType": "string",
          "name": "uri",
          "type": "string"
        }
      ],
      "name": "TokenURISet",
      "type": "event"
    },
    {
      "anonymous": false,
      "inputs": [
        {
          "indexed": true,
          "internalType": "address",
          "name": "from",
          "type": "address"
        },
        {
          "indexed": true,
          "internalType": "address",
          "name": "to",
          "type": "address"
        },
        {
          "indexed": true,
          "internalType": "uint256",
          "name": "tokenId",
          "type": "uint256"
        }
      ],
      "name": "Transfer",
      "type": "event"
    },
    {
      "anonymous": false,
      "inputs": [
        {
          "indexed": false,
          "internalType": "bytes32",
          "name": "root",
          "type": "bytes32"
        }
      ],
      "name": "WhitelistMerkleRootSet",
      "type": "event"
    },
    {
      "anonymous": false,
      "inputs": [
        {
          "indexed": true,
          "internalType": "address",
          "name": "to",
          "type": "address"
        },
        {
          "indexed": false,
          "internalType": "uint256",
          "name": "amount",
          "type": "uint256"
        }
      ],
      "name": "Withdrawn",
      "type": "event"
    },
    {
      "inputs": [],
      "name": "BURN_MILESTONE_INTERVAL",
      "outputs": [
        {
          "internalType": "uint256",
          "name": "",
          "type": "uint256"
        }
      ],
      "stateMutability": "view",
      "type": "function"
    },
    {
      "inputs": [],
      "name": "MAX_OWNER_MINT",
      "outputs": [
        {
          "internalType": "uint256",
          "name": "",
          "type": "uint256"
        }
      ],
      "stateMutability": "view",
      "type": "function"
    },
    {
      "inputs": [],
      "name": "MAX_PUBLIC_MINT",
      "outputs": [
        {
          "internalType": "uint256",
          "name": "",
          "type": "uint256"
        }
      ],
      "stateMutability": "view",
      "type": "function"
    },
    {
      "inputs": [],
      "name": "MAX_SUPPLY",
      "outputs": [
        {
          "internalType": "uint256",
          "name": "",
          "type": "uint256"
        }
      ],
      "stateMutability": "view",
      "type": "function"
    },
    {
      "inputs": [],
      "name": "MAX_WHITELIST_MINT",
      "outputs": [
        {
          "internalType": "uint256",
          "name": "",
          "type": "uint256"
        }
      ],
      "stateMutability": "view",
      "type": "function"
    },
    {
      "inputs": [],
      "name": "MINT_PRICE",
      "outputs": [
        {
          "internalType": "uint256",
          "name": "",
          "type": "uint256"
        }
      ],
      "stateMutability": "view",
      "type": "function"
    },
    {
      "inputs": [],
      "name": "acceptOwnership",
      "outputs": [],
      "stateMutability": "nonpayable",
      "type": "function"
    },
    {
      "inputs": [
        {
          "internalType": "address",
          "name": "to",
          "type": "address"
        },
        {
          "internalType": "uint256",
          "name": "tokenId",
          "type": "uint256"
        }
      ],
      "name": "approve",
      "outputs": [],
      "stateMutability": "nonpayable",
      "type": "function"
    },
    {
      "inputs": [
        {
          "internalType": "address",
          "name": "owner",
          "type": "address"
        }
      ],
      "name": "balanceOf",
      "outputs": [
        {
          "internalType": "uint256",
          "name": "",
          "type": "uint256"
        }
      ],
      "stateMutability": "view",
      "type": "function"
    },
    {
      "inputs": [
        {
          "internalType": "uint256",
          "name": "tokenId",
          "type": "uint256"
        }
      ],
      "name": "burn",
      "outputs": [],
      "stateMutability": "nonpayable",
      "type": "function"
    },
    {
      "inputs": [],
      "name": "burnCount",
      "outputs": [
        {
          "internalType": "uint256",
          "name": "",
          "type": "uint256"
        }
      ],
      "stateMutability": "view",
      "type": "function"
    },
    {
      "inputs": [
        {
          "internalType": "uint256",
          "name": "tokenId",
          "type": "uint256"
        }
      ],
      "name": "getApproved",
      "outputs": [
        {
          "internalType": "address",
          "name": "",
          "type": "address"
        }
      ],
      "stateMutability": "view",
      "type": "function"
    },
    {
      "inputs": [],
      "name": "holderMerkleRoot",
      "outputs": [
        {
          "internalType": "bytes32",
          "name": "",
          "type": "bytes32"
        }
      ],
      "stateMutability": "view",
      "type": "function"
    },
    {
      "inputs": [
        {
          "internalType": "uint256",
          "name": "quantity",
          "type": "uint256"
        },
        {
          "internalType": "uint256",
          "name": "maxQuantity",
          "type": "uint256"
        },
        {
          "internalType": "bytes32[]",
          "name": "proof",
          "type": "bytes32[]"
        }
      ],
      "name": "holderMint",
      "outputs": [],
      "stateMutability": "payable",
      "type": "function"
    },
    {
      "inputs": [
        {
          "internalType": "address",
          "name": "",
          "type": "address"
        }
      ],
      "name": "holderMintCount",
      "outputs": [
        {
          "internalType": "uint256",
          "name": "",
          "type": "uint256"
        }
      ],
      "stateMutability": "view",
      "type": "function"
    },
    {
      "inputs": [],
      "name": "holderStart",
      "outputs": [
        {
          "internalType": "uint64",
          "name": "",
          "type": "uint64"
        }
      ],
      "stateMutability": "view",
      "type": "function"
    },
    {
      "inputs": [
        {
          "internalType": "address",
          "name": "owner",
          "type": "address"
        },
        {
          "internalType": "address",
          "name": "operator",
          "type": "address"
        }
      ],
      "name": "isApprovedForAll",
      "outputs": [
        {
          "internalType": "bool",
          "name": "",
          "type": "bool"
        }
      ],
      "stateMutability": "view",
      "type": "function"
    },
    {
      "inputs": [],
      "name": "mintPhase",
      "outputs": [
        {
          "internalType": "enum LilBurn.MintPhase",
          "name": "",
          "type": "uint8"
        }
      ],
      "stateMutability": "view",
      "type": "function"
    },
    {
      "inputs": [],
      "name": "name",
      "outputs": [
        {
          "internalType": "string",
          "name": "",
          "type": "string"
        }
      ],
      "stateMutability": "view",
      "type": "function"
    },
    {
      "inputs": [],
      "name": "nextTokenId",
      "outputs": [
        {
          "internalType": "uint256",
          "name": "",
          "type": "uint256"
        }
      ],
      "stateMutability": "view",
      "type": "function"
    },
    {
      "inputs": [],
      "name": "owner",
      "outputs": [
        {
          "internalType": "address",
          "name": "",
          "type": "address"
        }
      ],
      "stateMutability": "view",
      "type": "function"
    },
    {
      "inputs": [
        {
          "internalType": "address",
          "name": "to",
          "type": "address"
        },
        {
          "internalType": "uint256",
          "name": "quantity",
          "type": "uint256"
        }
      ],
      "name": "ownerMint",
      "outputs": [],
      "stateMutability": "nonpayable",
      "type": "function"
    },
    {
      "inputs": [],
      "name": "ownerMintCount",
      "outputs": [
        {
          "internalType": "uint256",
          "name": "",
          "type": "uint256"
        }
      ],
      "stateMutability": "view",
      "type": "function"
    },
    {
      "inputs": [
        {
          "internalType": "uint256",
          "name": "tokenId",
          "type": "uint256"
        }
      ],
      "name": "ownerOf",
      "outputs": [
        {
          "internalType": "address",
          "name": "",
          "type": "address"
        }
      ],
      "stateMutability": "view",
      "type": "function"
    },
    {
      "inputs": [],
      "name": "paused",
      "outputs": [
        {
          "internalType": "bool",
          "name": "",
          "type": "bool"
        }
      ],
      "stateMutability": "view",
      "type": "function"
    },
    {
      "inputs": [],
      "name": "pendingOwner",
      "outputs": [
        {
          "internalType": "address",
          "name": "",
          "type": "address"
        }
      ],
      "stateMutability": "view",
      "type": "function"
    },
    {
      "inputs": [
        {
          "internalType": "uint256",
          "name": "quantity",
          "type": "uint256"
        }
      ],
      "name": "publicMint",
      "outputs": [],
      "stateMutability": "payable",
      "type": "function"
    },
    {
      "inputs": [],
      "name": "publicStart",
      "outputs": [
        {
          "internalType": "uint64",
          "name": "",
          "type": "uint64"
        }
      ],
      "stateMutability": "view",
      "type": "function"
    },
    {
      "inputs": [],
      "name": "renounceOwnership",
      "outputs": [],
      "stateMutability": "nonpayable",
      "type": "function"
    },
    {
      "inputs": [
        {
          "internalType": "address",
          "name": "from",
          "type": "address"
        },
        {
          "internalType": "address",
          "name": "to",
          "type": "address"
        },
        {
          "internalType": "uint256",
          "name": "tokenId",
          "type": "uint256"
        }
      ],
      "name": "safeTransferFrom",
      "outputs": [],
      "stateMutability": "nonpayable",
      "type": "function"
    },
    {
      "inputs": [
        {
          "internalType": "address",
          "name": "from",
          "type": "address"
        },
        {
          "internalType": "address",
          "name": "to",
          "type": "address"
        },
        {
          "internalType": "uint256",
          "name": "tokenId",
          "type": "uint256"
        },
        {
          "internalType": "bytes",
          "name": "data",
          "type": "bytes"
        }
      ],
      "name": "safeTransferFrom",
      "outputs": [],
      "stateMutability": "nonpayable",
      "type": "function"
    },
    {
      "inputs": [
        {
          "internalType": "address",
          "name": "operator",
          "type": "address"
        },
        {
          "internalType": "bool",
          "name": "approved",
          "type": "bool"
        }
      ],
      "name": "setApprovalForAll",
      "outputs": [],
      "stateMutability": "nonpayable",
      "type": "function"
    },
    {
      "inputs": [
        {
          "internalType": "string",
          "name": "baseURI",
          "type": "string"
        }
      ],
      "name": "setBaseURI",
      "outputs": [],
      "stateMutability": "nonpayable",
      "type": "function"
    },
    {
      "inputs": [
        {
          "internalType": "bytes32",
          "name": "_root",
          "type": "bytes32"
        }
      ],
      "name": "setHolderMerkleRoot",
      "outputs": [],
      "stateMutability": "nonpayable",
      "type": "function"
    },
    {
      "inputs": [
        {
          "internalType": "bool",
          "name": "_paused",
          "type": "bool"
        }
      ],
      "name": "setPaused",
      "outputs": [],
      "stateMutability": "nonpayable",
      "type": "function"
    },
    {
      "inputs": [
        {
          "internalType": "uint64",
          "name": "_holderStart",
          "type": "uint64"
        },
        {
          "internalType": "uint64",
          "name": "_whitelistStart",
          "type": "uint64"
        },
        {
          "internalType": "uint64",
          "name": "_publicStart",
          "type": "uint64"
        }
      ],
      "name": "setPhaseSchedule",
      "outputs": [],
      "stateMutability": "nonpayable",
      "type": "function"
    },
    {
      "inputs": [
        {
          "internalType": "uint256",
          "name": "tokenId",
          "type": "uint256"
        },
        {
          "internalType": "string",
          "name": "uri",
          "type": "string"
        }
      ],
      "name": "setTokenURI",
      "outputs": [],
      "stateMutability": "nonpayable",
      "type": "function"
    },
    {
      "inputs": [
        {
          "internalType": "bytes32",
          "name": "_root",
          "type": "bytes32"
        }
      ],
      "name": "setWhitelistMerkleRoot",
      "outputs": [],
      "stateMutability": "nonpayable",
      "type": "function"
    },
    {
      "inputs": [
        {
          "internalType": "bytes4",
          "name": "interfaceId",
          "type": "bytes4"
        }
      ],
      "name": "supportsInterface",
      "outputs": [
        {
          "internalType": "bool",
          "name": "",
          "type": "bool"
        }
      ],
      "stateMutability": "view",
      "type": "function"
    },
    {
      "inputs": [],
      "name": "symbol",
      "outputs": [
        {
          "internalType": "string",
          "name": "",
          "type": "string"
        }
      ],
      "stateMutability": "view",
      "type": "function"
    },
    {
      "inputs": [
        {
          "internalType": "uint256",
          "name": "tokenId",
          "type": "uint256"
        }
      ],
      "name": "tokenURI",
      "outputs": [
        {
          "internalType": "string",
          "name": "",
          "type": "string"
        }
      ],
      "stateMutability": "view",
      "type": "function"
    },
    {
      "inputs": [
        {
          "internalType": "address",
          "name": "owner",
          "type": "address"
        }
      ],
      "name": "tokensOfOwner",
      "outputs": [
        {
          "internalType": "uint256[]",
          "name": "",
          "type": "uint256[]"
        }
      ],
      "stateMutability": "view",
      "type": "function"
    },
    {
      "inputs": [],
      "name": "totalSupply",
      "outputs": [
        {
          "internalType": "uint256",
          "name": "",
          "type": "uint256"
        }
      ],
      "stateMutability": "view",
      "type": "function"
    },
    {
      "inputs": [
        {
          "internalType": "address",
          "name": "from",
          "type": "address"
        },
        {
          "internalType": "address",
          "name": "to",
          "type": "address"
        },
        {
          "internalType": "uint256",
          "name": "tokenId",
          "type": "uint256"
        }
      ],
      "name": "transferFrom",
      "outputs": [],
      "stateMutability": "nonpayable",
      "type": "function"
    },
    {
      "inputs": [
        {
          "internalType": "address",
          "name": "newOwner",
          "type": "address"
        }
      ],
      "name": "transferOwnership",
      "outputs": [],
      "stateMutability": "nonpayable",
      "type": "function"
    },
    {
      "inputs": [],
      "name": "whitelistMerkleRoot",
      "outputs": [
        {
          "internalType": "bytes32",
          "name": "",
          "type": "bytes32"
        }
      ],
      "stateMutability": "view",
      "type": "function"
    },
    {
      "inputs": [
        {
          "internalType": "uint256",
          "name": "quantity",
          "type": "uint256"
        },
        {
          "internalType": "bytes32[]",
          "name": "proof",
          "type": "bytes32[]"
        }
      ],
      "name": "whitelistMint",
      "outputs": [],
      "stateMutability": "payable",
      "type": "function"
    },
    {
      "inputs": [
        {
          "internalType": "address",
          "name": "",
          "type": "address"
        }
      ],
      "name": "whitelistMintCount",
      "outputs": [
        {
          "internalType": "uint256",
          "name": "",
          "type": "uint256"
        }
      ],
      "stateMutability": "view",
      "type": "function"
    },
    {
      "inputs": [],
      "name": "whitelistStart",
      "outputs": [
        {
          "internalType": "uint64",
          "name": "",
          "type": "uint64"
        }
      ],
      "stateMutability": "view",
      "type": "function"
    },
    {
      "inputs": [],
      "name": "withdraw",
      "outputs": [],
      "stateMutability": "nonpayable",
      "type": "function"
    }
  ],
  "bytecode": "0x60806040526001600955348015610014575f5ffd5b50604051612e22380380612e228339810160408190526100339161013b565b80604051806040016040528060088152602001672634b610213ab93760c11b815250604051806040016040528060058152602001642634b616a160d91b815250815f90816100819190610200565b50600161008e8282610200565b5050506001600160a01b0381166100be57604051631e4fbdf760e01b81525f600482015260240160405180910390fd5b6100c7816100ce565b50506102ba565b600880546001600160a01b03191690556100e7816100ea565b50565b600780546001600160a01b038381166001600160a01b0319831681179093556040519116919082907f8be0079c531659141344cd1fd0a4f28419497f9722a3daafe3b4186f6b6457e0905f90a35050565b5f6020828403121561014b575f5ffd5b81516001600160a01b0381168114610161575f5ffd5b9392505050565b634e487b7160e01b5f52604160045260245ffd5b600181811c9082168061019057607f821691505b6020821081036101ae57634e487b7160e01b5f52602260045260245ffd5b50919050565b601f8211156101fb57805f5260205f20601f840160051c810160208510156101d95750805b601f840160051c820191505b818110156101f8575f81556001016101e5565b50505b505050565b81516001600160401b0381111561021957610219610168565b61022d81610227845461017c565b846101b4565b6020601f82116001811461025f575f83156102485750848201515b5f19600385901b1c1916600184901b1784556101f8565b5f84815260208120601f198516915b8281101561028e578785015182556020948501946001909201910161026e565b50848210156102ab57868401515f19600387901b60f8161c191681555b50505050600190811b01905550565b612b5b806102c75f395ff3fe6080604052600436106102bf575f3560e01c80636352211e1161016f578063a22cb465116100d8578063c08dfd3c11610092578063e2ee78fb1161006d578063e2ee78fb14610818578063e30c397814610837578063e985e9c514610854578063f2fde38b14610873575f5ffd5b8063c08dfd3c146107d2578063c87b56dd146107e6578063d2cab05614610805575f5ffd5b8063a22cb4651461071f578063a5f4c6ff1461073e578063aa98e0c614610764578063b88d4fde14610779578063bd32fb6614610798578063c002d23d146107b7575f5ffd5b80638462151c116101295780638462151c146106695780638da5cb5b1461069557806395d89b41146106b2578063994d3969146106c65780639d9fa42a146106ec5780639eb6ab621461070b575f5ffd5b80636352211e146105db57806365f13097146105fa57806370a082311461060e578063715018a61461062d57806375794a3c1461064157806379ba509714610655575f5ffd5b806323b872dd1161022b57806342842e0e116101e5578063524773ce116101c0578063524773ce1461057457806354a8ccea1461058957806355f804b31461059c5780635c975abb146105bb575f5ffd5b806342842e0e1461051757806342966c6814610536578063484b973c14610555575f5ffd5b806323b872dd146104665780632abf272e146104855780632db11544146104b057806332cb6b0c146104c35780633bdf4ac6146104d85780633ccfd60b14610503575f5ffd5b8063143efd1c1161027c578063143efd1c146103a7578063162094c4146103bc57806316a73bde146103db57806316c38b3c1461041257806317881cbf1461043157806318160ddd14610452575f5ffd5b806301ffc9a7146102c3578063058f576a146102f757806306fdde0314610319578063081812fc1461033a578063095ea7b314610371578063137edaa014610392575b5f5ffd5b3480156102ce575f5ffd5b506102e26102dd3660046122d5565b610892565b60405190151581526020015b60405180910390f35b348015610302575f5ffd5b5061030b603281565b6040519081526020016102ee565b348015610324575f5ffd5b5061032d6108bc565b6040516102ee919061231e565b348015610345575f5ffd5b50610359610354366004612330565b61094b565b6040516001600160a01b0390911681526020016102ee565b34801561037c575f5ffd5b5061039061038b366004612362565b610972565b005b34801561039d575f5ffd5b5061030b600b5481565b3480156103b2575f5ffd5b5061030b600d5481565b3480156103c7575f5ffd5b506103906103d63660046123ce565b610981565b3480156103e6575f5ffd5b50600c546103fa906001600160401b031681565b6040516001600160401b0390911681526020016102ee565b34801561041d575f5ffd5b5061039061042c366004612424565b610a07565b34801561043c575f5ffd5b50610445610a67565b6040516102ee9190612451565b34801561045d575f5ffd5b5061030b610b31565b348015610471575f5ffd5b50610390610480366004612477565b610b53565b348015610490575f5ffd5b5061030b61049f3660046124b1565b60106020525f908152604090205481565b6103906104be366004612330565b610be1565b3480156104ce575f5ffd5b5061030b6103e881565b3480156104e3575f5ffd5b5061030b6104f23660046124b1565b60116020525f908152604090205481565b34801561050e575f5ffd5b50610390610cf9565b348015610522575f5ffd5b50610390610531366004612477565b610dc3565b348015610541575f5ffd5b50610390610550366004612330565b610de2565b348015610560575f5ffd5b5061039061056f366004612362565b610eb6565b34801561057f575f5ffd5b5061030b600a5481565b61039061059736600461250a565b610f6a565b3480156105a7575f5ffd5b506103906105b6366004612558565b61118a565b3480156105c6575f5ffd5b50600c546102e290600160c01b900460ff1681565b3480156105e6575f5ffd5b506103596105f5366004612330565b6111dd565b348015610605575f5ffd5b5061030b601481565b348015610619575f5ffd5b5061030b6106283660046124b1565b6111e7565b348015610638575f5ffd5b5061039061122c565b34801561064c575f5ffd5b5060095461030b565b348015610660575f5ffd5b5061039061123f565b348015610674575f5ffd5b506106886106833660046124b1565b611280565b6040516102ee9190612596565b3480156106a0575f5ffd5b506007546001600160a01b0316610359565b3480156106bd575f5ffd5b5061032d61133e565b3480156106d1575f5ffd5b50600c546103fa90600160401b90046001600160401b031681565b3480156106f7575f5ffd5b506103906107063660046125ee565b61134d565b348015610716575f5ffd5b5061030b600881565b34801561072a575f5ffd5b5061039061073936600461262e565b6114ae565b348015610749575f5ffd5b50600c546103fa90600160801b90046001600160401b031681565b34801561076f575f5ffd5b5061030b600e5481565b348015610784575f5ffd5b50610390610793366004612673565b6114b9565b3480156107a3575f5ffd5b506103906107b2366004612330565b6114d1565b3480156107c2575f5ffd5b5061030b671bc16d674ec8000081565b3480156107dd575f5ffd5b5061030b600281565b3480156107f1575f5ffd5b5061032d610800366004612330565b61150e565b61039061081336600461274d565b61153f565b348015610823575f5ffd5b50610390610832366004612330565b611751565b348015610842575f5ffd5b506008546001600160a01b0316610359565b34801561085f575f5ffd5b506102e261086e366004612787565b61178e565b34801561087e575f5ffd5b5061039061088d3660046124b1565b6117bb565b5f6001600160e01b03198216632483248360e11b14806108b657506108b68261182c565b92915050565b60605f80546108ca906127af565b80601f01602080910402602001604051908101604052809291908181526020018280546108f6906127af565b80156109415780601f1061091857610100808354040283529160200191610941565b820191905f5260205f20905b81548152906001019060200180831161092457829003601f168201915b5050505050905090565b5f6109558261187b565b505f828152600460205260409020546001600160a01b03166108b6565b61097d8282336118b3565b5050565b6109896118c0565b6109c88383838080601f0160208091040260200160405190810160405280939291908181526020018383808284375f920191909152506118ed92505050565b827fda84ca2183491f179a603e877b2cb058e42195041c2b9c53d746427e519a34df83836040516109fa9291906127e7565b60405180910390a2505050565b610a0f6118c0565b600c8054821515600160c01b0260ff60c01b199091161790556040517f6c5077b147ba33efb2320134a1363ca18ccbacd3e2eb73438a3d23b2d7b180ba90610a5c90831515815260200190565b60405180910390a150565b600c545f90600160c01b900460ff1615610a8057505f90565b600c54600160801b90046001600160401b031615801590610ab35750600c54600160801b90046001600160401b03164210155b15610abe5750600390565b600c54600160401b90046001600160401b031615801590610af15750600c54600160401b90046001600160401b03164210155b15610afc5750600290565b600c546001600160401b031615801590610b215750600c546001600160401b03164210155b15610b2c5750600190565b505f90565b5f600a546001600954610b449190612829565b610b4e9190612829565b905090565b6001600160a01b038216610b8157604051633250574960e11b81525f60048201526024015b60405180910390fd5b5f610b8d838333611935565b9050836001600160a01b0316816001600160a01b031614610bdb576040516364283d7b60e01b81526001600160a01b0380861660048301526024820184905282166044820152606401610b78565b50505050565b6003610beb610a67565b6003811115610bfc57610bfc61243d565b14610c1a576040516346c9548960e01b815260040160405180910390fd5b6008600b541015610c3d5760405162c07e8560e01b815260040160405180910390fd5b805f03610c5d5760405163f4f5b73360e01b815260040160405180910390fd5b6014811115610c7f576040516352f7657b60e01b815260040160405180910390fd5b6103e8816001600954610c929190612829565b610c9c919061283c565b1115610cbb5760405163c30436e960e01b815260040160405180910390fd5b610ccd671bc16d674ec800008261284f565b3414610cec5760405163569e8c1160e01b815260040160405180910390fd5b610cf63382611a27565b50565b610d016118c0565b5f610d146007546001600160a01b031690565b60405190915047905f906001600160a01b0384169083908381818185875af1925050503d805f8114610d61576040519150601f19603f3d011682016040523d82523d5f602084013e610d66565b606091505b5050905080610d8857604051631d42c86760e21b815260040160405180910390fd5b826001600160a01b03167f7084f5476618d8e60b11ef0d7d3f06914655adb8793e28ff7f018d4c76d505d5836040516109fa91815260200190565b610ddd83838360405180602001604052805f8152506114b9565b505050565b5f610dec826111dd565b9050336001600160a01b03821614801590610e0e5750610e0c813361178e565b155b8015610e2b575033610e1f8361094b565b6001600160a01b031614155b15610e4957604051636d8a29e760e11b815260040160405180910390fd5b610e5282611aae565b600a8054905f610e6183612866565b91905055506032600a54610e759190612892565b5f0361097d576032600a54610e8a91906128a5565b6040517fed2a3dcc5fa6e6a255337460596a0b724d6d206b7281209784fd7d077b6544e7905f90a25050565b610ebe6118c0565b805f03610ede5760405163f4f5b73360e01b815260040160405180910390fd5b600881600b54610eee919061283c565b1115610f0d57604051635b48c00f60e11b815260040160405180910390fd5b6103e8816001600954610f209190612829565b610f2a919061283c565b1115610f495760405163c30436e960e01b815260040160405180910390fd5b80600b5f828254610f5a919061283c565b9091555061097d90508282611a27565b6001610f74610a67565b6003811115610f8557610f8561243d565b14610fa3576040516346c9548960e01b815260040160405180910390fd5b6008600b541015610fc65760405162c07e8560e01b815260040160405180910390fd5b835f03610fe65760405163f4f5b73360e01b815260040160405180910390fd5b600d5461100657604051634fc5147960e11b815260040160405180910390fd5b6103e88460016009546110199190612829565b611023919061283c565b11156110425760405163c30436e960e01b815260040160405180910390fd5b611054671bc16d674ec800008561284f565b34146110735760405163569e8c1160e01b815260040160405180910390fd5b604080513360208201529081018490525f9060600160408051601f19818403018152828252805160209182012090830152016040516020818303038152906040528051906020012090506110fd8383808060200260200160405190810160405280939291908181526020018383602002808284375f9201919091525050600d549150849050611ae6565b61111a5760405163582f497d60e11b815260040160405180910390fd5b335f90815260106020526040902054849061113690879061283c565b1115611155576040516352f7657b60e01b815260040160405180910390fd5b335f908152601060205260408120805487929061117390849061283c565b9091555061118390503386611a27565b5050505050565b6111926118c0565b600f61119f8284836128fc565b507ff9c7803e94e0d3c02900d8a90893a6d5e90dd04d32a4cfe825520f82bf9f32f682826040516111d19291906127e7565b60405180910390a15050565b5f6108b68261187b565b5f6001600160a01b038216611211576040516322718ad960e21b81525f6004820152602401610b78565b506001600160a01b03165f9081526003602052604090205490565b6112346118c0565b61123d5f611afb565b565b60085433906001600160a01b031681146112775760405163118cdaa760e01b81526001600160a01b0382166004820152602401610b78565b610cf681611afb565b60605f61128c836111e7565b90505f816001600160401b038111156112a7576112a761265f565b6040519080825280602002602001820160405280156112d0578160200160208202803683370190505b5090505f60015b600954811015611334575f818152600260205260409020546001600160a01b0387811691160361132c5780838361130d81612866565b94508151811061131f5761131f6129b5565b6020026020010181815250505b6001016112d7565b5090949350505050565b6060600180546108ca906127af565b6113556118c0565b5f6001600160401b03841615801561137457506001600160401b038316155b801561138757506001600160401b038216155b9050801580156113f957506001600160401b03841615806113af57506001600160401b038316155b806113c157506001600160401b038216155b806113dd5750836001600160401b0316836001600160401b0316105b806113f95750826001600160401b0316826001600160401b0316105b156114175760405163a74634cd60e01b815260040160405180910390fd5b600c80546001600160401b038681166fffffffffffffffffffffffffffffffff199092168217600160401b8783169081029190911767ffffffffffffffff60801b1916600160801b928716928302179093556040805192835260208301939093528183015290517f2fe2696b841442690b5a7ff5865214bb7581c5bccf70025b792f3c3c87a3e7e49181900360600190a150505050565b61097d338383611b14565b6114c4848484610b53565b610bdb3385858585611baa565b6114d96118c0565b600e8190556040518181527fa84d729320aee887e94632a9e099ead4ea846f61ae5f8464081fc68e88ca1c0b90602001610a5c565b606061151982611cd1565b60405160200161152991906129e0565b6040516020818303038152906040529050919050565b6002611549610a67565b600381111561155a5761155a61243d565b14611578576040516346c9548960e01b815260040160405180910390fd5b6008600b54101561159b5760405162c07e8560e01b815260040160405180910390fd5b825f036115bb5760405163f4f5b73360e01b815260040160405180910390fd5b600e546115db57604051634fc5147960e11b815260040160405180910390fd5b6103e88360016009546115ee9190612829565b6115f8919061283c565b11156116175760405163c30436e960e01b815260040160405180910390fd5b335f9081526011602052604090205460029061163490859061283c565b1115611653576040516352f7657b60e01b815260040160405180910390fd5b611665671bc16d674ec800008461284f565b34146116845760405163569e8c1160e01b815260040160405180910390fd5b604080513360208201525f910160408051601f19818403018152828252805160209182012090830152016040516020818303038152906040528051906020012090506117068383808060200260200160405190810160405280939291908181526020018383602002808284375f9201919091525050600e549150849050611ae6565b6117235760405163582f497d60e11b815260040160405180910390fd5b335f908152601160205260408120805486929061174190849061283c565b90915550610bdb90503385611a27565b6117596118c0565b600d8190556040518181527fd1949272f967a8d31930da5b820f42510d1862c72a321c26c1ad59518850d53590602001610a5c565b6001600160a01b039182165f90815260056020908152604080832093909416825291909152205460ff1690565b6117c36118c0565b600880546001600160a01b0383166001600160a01b031990911681179091556117f46007546001600160a01b031690565b6001600160a01b03167f38d16b8cac22d99fc7c124b9cd0de2d3fa1faef420bfe791d8c362d765e2270060405160405180910390a350565b5f6001600160e01b031982166380ac58cd60e01b148061185c57506001600160e01b03198216635b5e139f60e01b145b806108b657506301ffc9a760e01b6001600160e01b03198316146108b6565b5f818152600260205260408120546001600160a01b0316806108b657604051637e27328960e01b815260048101849052602401610b78565b610ddd8383836001611dd0565b6007546001600160a01b0316331461123d5760405163118cdaa760e01b8152336004820152602401610b78565b5f8281526006602052604090206119048282612a00565b506040518281527ff8e1a15aba9398e019f0b49df1a4fde98ee17ae345cb5f6b5e2c27f5033e8ce7906020016111d1565b5f828152600260205260408120546001600160a01b039081169083161561196157611961818486611ed4565b6001600160a01b0381161561199b5761197c5f855f5f611dd0565b6001600160a01b0381165f90815260036020526040902080545f190190555b6001600160a01b038516156119c9576001600160a01b0385165f908152600360205260409020805460010190555b5f8481526002602052604080822080546001600160a01b0319166001600160a01b0389811691821790925591518793918516917fddf252ad1be2c89b69c2b068fc378daa952ba7f163c4a11628f55a4df523b3ef91a4949350505050565b600980549082905f611a39838561283c565b909155505f90505b82811015611a6457611a5c84611a57838561283c565b611f38565b600101611a41565b5080836001600160a01b03167f25b428dfde728ccfaddad7e29e4ac23c24ed7fd1a6e3e3f91894a9a073f5dfff84604051611aa191815260200190565b60405180910390a3505050565b5f611aba5f835f611935565b90506001600160a01b03811661097d57604051637e27328960e01b815260048101839052602401610b78565b5f82611af28584611f51565b14949350505050565b600880546001600160a01b0319169055610cf681611f93565b6001600160a01b038216611b4657604051630b61174360e31b81526001600160a01b0383166004820152602401610b78565b6001600160a01b038381165f81815260056020908152604080832094871680845294825291829020805460ff191686151590811790915591519182527f17307eab39ab6107e8899845ad3d59bd9653f200f220920489ca2b5937696c319101611aa1565b6001600160a01b0383163b1561118357604051630a85bd0160e11b81526001600160a01b0384169063150b7a0290611bec908890889087908790600401612aba565b6020604051808303815f875af1925050508015611c26575060408051601f3d908101601f19168201909252611c2391810190612af6565b60015b611c8d573d808015611c53576040519150601f19603f3d011682016040523d82523d5f602084013e611c58565b606091505b5080515f03611c8557604051633250574960e11b81526001600160a01b0385166004820152602401610b78565b805160208201fd5b6001600160e01b03198116630a85bd0160e11b14611cc957604051633250574960e11b81526001600160a01b0385166004820152602401610b78565b505050505050565b6060611cdc8261187b565b505f8281526006602052604081208054611cf5906127af565b80601f0160208091040260200160405190810160405280929190818152602001828054611d21906127af565b8015611d6c5780601f10611d4357610100808354040283529160200191611d6c565b820191905f5260205f20905b815481529060010190602001808311611d4f57829003601f168201915b505050505090505f611d7c611fe4565b905080515f03611d8d575092915050565b815115611dbf578082604051602001611da7929190612b11565b60405160208183030381529060405292505050919050565b611dc884611ff3565b949350505050565b8080611de457506001600160a01b03821615155b15611ea5575f611df38461187b565b90506001600160a01b03831615801590611e1f5750826001600160a01b0316816001600160a01b031614155b8015611e325750611e30818461178e565b155b15611e5b5760405163a9fbf51f60e01b81526001600160a01b0384166004820152602401610b78565b8115611ea35783856001600160a01b0316826001600160a01b03167f8c5be1e5ebec7d5bd14f71427d1e84f3dd0314c0f7b2291e5b200ac8c7c3b92560405160405180910390a45b505b50505f90815260046020526040902080546001600160a01b0319166001600160a01b0392909216919091179055565b611edf838383612058565b610ddd576001600160a01b038316611f0d57604051637e27328960e01b815260048101829052602401610b78565b60405163177e802f60e01b81526001600160a01b038316600482015260248101829052604401610b78565b61097d828260405180602001604052805f8152506120b9565b5f81815b8451811015611f8b57611f8182868381518110611f7457611f746129b5565b60200260200101516120d0565b9150600101611f55565b509392505050565b600780546001600160a01b038381166001600160a01b0319831681179093556040519116919082907f8be0079c531659141344cd1fd0a4f28419497f9722a3daafe3b4186f6b6457e0905f90a35050565b6060600f80546108ca906127af565b6060611ffe8261187b565b505f612008611fe4565b90505f8151116120265760405180602001604052805f815250612051565b80612030846120f9565b604051602001612041929190612b11565b6040516020818303038152906040525b9392505050565b5f6001600160a01b03831615801590611dc85750826001600160a01b0316846001600160a01b031614806120915750612091848461178e565b80611dc85750505f908152600460205260409020546001600160a01b03908116911614919050565b6120c38383612188565b610ddd335f858585611baa565b5f8183106120ea575f828152602084905260409020612051565b505f9182526020526040902090565b60605f612105836121e9565b60010190505f816001600160401b038111156121235761212361265f565b6040519080825280601f01601f19166020018201604052801561214d576020820181803683370190505b5090508181016020015b5f19016f181899199a1a9b1b9c1cb0b131b232b360811b600a86061a8153600a850494508461215757509392505050565b6001600160a01b0382166121b157604051633250574960e11b81525f6004820152602401610b78565b5f6121bd83835f611935565b90506001600160a01b03811615610ddd576040516339e3563760e11b81525f6004820152602401610b78565b5f8072184f03e93ff9f4daa797ed6e38ed64bf6a1f0160401b83106122275772184f03e93ff9f4daa797ed6e38ed64bf6a1f0160401b830492506040015b6d04ee2d6d415b85acef81000000008310612253576d04ee2d6d415b85acef8100000000830492506020015b662386f26fc10000831061227157662386f26fc10000830492506010015b6305f5e1008310612289576305f5e100830492506008015b612710831061229d57612710830492506004015b606483106122af576064830492506002015b600a83106108b65760010192915050565b6001600160e01b031981168114610cf6575f5ffd5b5f602082840312156122e5575f5ffd5b8135612051816122c0565b5f81518084528060208401602086015e5f602082860101526020601f19601f83011685010191505092915050565b602081525f61205160208301846122f0565b5f60208284031215612340575f5ffd5b5035919050565b80356001600160a01b038116811461235d575f5ffd5b919050565b5f5f60408385031215612373575f5ffd5b61237c83612347565b946020939093013593505050565b5f5f83601f84011261239a575f5ffd5b5081356001600160401b038111156123b0575f5ffd5b6020830191508360208285010111156123c7575f5ffd5b9250929050565b5f5f5f604084860312156123e0575f5ffd5b8335925060208401356001600160401b038111156123fc575f5ffd5b6124088682870161238a565b9497909650939450505050565b8035801515811461235d575f5ffd5b5f60208284031215612434575f5ffd5b61205182612415565b634e487b7160e01b5f52602160045260245ffd5b602081016004831061247157634e487b7160e01b5f52602160045260245ffd5b91905290565b5f5f5f60608486031215612489575f5ffd5b61249284612347565b92506124a060208501612347565b929592945050506040919091013590565b5f602082840312156124c1575f5ffd5b61205182612347565b5f5f83601f8401126124da575f5ffd5b5081356001600160401b038111156124f0575f5ffd5b6020830191508360208260051b85010111156123c7575f5ffd5b5f5f5f5f6060858703121561251d575f5ffd5b843593506020850135925060408501356001600160401b03811115612540575f5ffd5b61254c878288016124ca565b95989497509550505050565b5f5f60208385031215612569575f5ffd5b82356001600160401b0381111561257e575f5ffd5b61258a8582860161238a565b90969095509350505050565b602080825282518282018190525f918401906040840190835b818110156125cd5783518352602093840193909201916001016125af565b509095945050505050565b80356001600160401b038116811461235d575f5ffd5b5f5f5f60608486031215612600575f5ffd5b612609846125d8565b9250612617602085016125d8565b9150612625604085016125d8565b90509250925092565b5f5f6040838503121561263f575f5ffd5b61264883612347565b915061265660208401612415565b90509250929050565b634e487b7160e01b5f52604160045260245ffd5b5f5f5f5f60808587031215612686575f5ffd5b61268f85612347565b935061269d60208601612347565b92506040850135915060608501356001600160401b038111156126be575f5ffd5b8501601f810187136126ce575f5ffd5b80356001600160401b038111156126e7576126e761265f565b604051601f8201601f19908116603f011681016001600160401b03811182821017156127155761271561265f565b60405281815282820160200189101561272c575f5ffd5b816020840160208301375f6020838301015280935050505092959194509250565b5f5f5f6040848603121561275f575f5ffd5b8335925060208401356001600160401b0381111561277b575f5ffd5b612408868287016124ca565b5f5f60408385031215612798575f5ffd5b6127a183612347565b915061265660208401612347565b600181811c908216806127c357607f821691505b6020821081036127e157634e487b7160e01b5f52602260045260245ffd5b50919050565b60208152816020820152818360408301375f818301604090810191909152601f909201601f19160101919050565b634e487b7160e01b5f52601160045260245ffd5b818103818111156108b6576108b6612815565b808201808211156108b6576108b6612815565b80820281158282048414176108b6576108b6612815565b5f6001820161287757612877612815565b5060010190565b634e487b7160e01b5f52601260045260245ffd5b5f826128a0576128a061287e565b500690565b5f826128b3576128b361287e565b500490565b601f821115610ddd57805f5260205f20601f840160051c810160208510156128dd5750805b601f840160051c820191505b81811015611183575f81556001016128e9565b6001600160401b038311156129135761291361265f565b6129278361292183546127af565b836128b8565b5f601f841160018114612958575f85156129415750838201355b5f19600387901b1c1916600186901b178355611183565b5f83815260208120601f198716915b828110156129875786850135825560209485019460019092019101612967565b50868210156129a3575f1960f88860031b161c19848701351681555b505060018560011b0183555050505050565b634e487b7160e01b5f52603260045260245ffd5b5f81518060208401855e5f93019283525090919050565b5f6129eb82846129c9565b64173539b7b760d91b81526005019392505050565b81516001600160401b03811115612a1957612a1961265f565b612a2d81612a2784546127af565b846128b8565b6020601f821160018114612a5f575f8315612a485750848201515b5f19600385901b1c1916600184901b178455611183565b5f84815260208120601f198516915b82811015612a8e5787850151825560209485019460019092019101612a6e565b5084821015612aab57868401515f19600387901b60f8161c191681555b50505050600190811b01905550565b6001600160a01b03858116825284166020820152604081018390526080606082018190525f90612aec908301846122f0565b9695505050505050565b5f60208284031215612b06575f5ffd5b8151612051816122c0565b5f611dc8612b1f83866129c9565b846129c956fea26469706673582212204aed087db1637a6c9d72169a766934aa8eff81bb72af04a572d885b22b7850ed64736f6c634300081c0033",
  "linkReferences": {},
  "deployedLinkReferences": {},
  "immutableReferences": {},
  "inputSourceName": "project/contracts/LilBurn.sol",
  "buildInfoId": "solc-0_8_28-35615843201af0b08bf1f0fa81fee28ced78fbd7"
}